:1000000083177D3084007E300A128A110D200A1277
:100010008A1183010A128A11152864008001840A5A
:1000200004060319003404060E2803108316031374
:10003000003003180130860003100030031801302F
:1000400088008130831203139F00803083160313CE
:100050009F00FF3085000A128A1171230A128A114B
:1000600083120313F930B3006400B30B342838282B
:10007000640001300A128A1147230A128A1183127E
:1000800003130D30B400FB30B300B30B4528B40BA1
:1000900045284A28831203131F15F930B300640062
:1000A000B30B4F28532864005528831203131F19DC
:1000B0005A285B2855281E08B300B4010830B50043
:1000C0000310B30DB40DB50B60283308B700340826
:1000D000B8000A128A11D1240A128A11831203135A
:1000E0003708A0003808A1003908A200F930B30091
:1000F0006400B30B78287C286400831203138316F2
:1001000003131E08831203132F07B70030080318C8
:10011000300F0310B8000318320ABA003108031870
:10012000310F0310B9000318320ABA00320803185D
:10013000320ABA000A128A1182240A128A11831220
:1001400003133708A0003808A1003908A200F930CD
:10015000B3006400B30BA928AD2864008312031315
:100160000030BA00FA30BB003E30BC002008B700B7
:100170002108B8002208B9000A128A115D260A1265
:100180008A11831203133708A0003808A100390828
:10019000A2002008B7002108B8002208B9000A12FE
:1001A0008A11EA250A128A11831203133708B30051
:1001B0003808B4000030B41BFF30B500B600360874
:1001C000B2003508B1003408B0003308AF00303059
:1001D000B3000030B4000030B5000030B60000308D
:1001E000BE000030BD000030BC000A30BB00320849
:1001F000BA003108B9003008B8002F08B7000A1259
:100200008A1134240A128A11831203133708B307A0
:1002100038080318380FB40739080318390FB50721
:100220003A0803183A0AB6073608A6003508A500AA
:100230003408A4003308A3000030BE000030BD0025
:100240000030BC000A30BB003208BA003108B900E7
:100250003008B8002F08B7000A128A117B250A124D
:100260008A11831203133A08B2003908B100380822
:10027000B0003708AF003030B3000030B4000030B9
:10028000B5000030B6000030BE000030BD000030C8
:10029000BC000A30BB003208BA003108B90030088F
:1002A000B8002F08B7000A128A1134240A128A11E2
:1002B000831203133708B30738080318380FB4073D
:1002C00039080318390FB5073A0803183A0AB60770
:1002D0003608AE003508AD003408AC003308AB007A
:1002E0000030BE000030BD000030BC000A30BB0052
:1002F0003208BA003108B9003008B8002F08B7003A
:100300000A128A117B250A128A11831203133A08F2
:10031000B2003908B1003808B0003708AF003030FB
:10032000B3000030B4000030B5000030B60000303B
:10033000BE000030BD000030BC000A30BB003208F7
:10034000BA003108B9003008B8002F08B7000A1207
:100350008A1134240A128A11831203133708B3074F
:1003600038080318380FB40739080318390FB507D0
:100370003A0803183A0AB6073608AA003508A90051
:100380003408A8003308A700C2300A128A11EB23F0
:100390000A128A118312031327080A128A11A5234D
:1003A0000A128A11831203132B080A128A11A52339
:1003B0000A128A118312031323080A128A11A52331
:1003C0000A128A11831203131A30B400F830B300F2
:1003D000B30BE829B40BE82964004A280A128A11F1
:0203E0000028F3
:10068E0083120313B7000030B8000030B900632B9B
:10069E00370838070A128A1109270A128A110A1214
:1006AE008A11A5230A128A11831203130130B80787
:1006BE000318B90A0030B907370838070A128A1129
:1006CE0009270A128A110038031D6E2B6F2B4F2B30
:1006DE00702B08008312031386110430B700B70B7A
:1006EE00762B792B03300A128A11EB230A128A1108
:1006FE0003300A128A11EB230A128A1103300A12EE
:10070E008A11EB230A128A1102300A128A11EB2384
:10071E000A128A1128300A128A11EB230A128A1140
:10072E000C300A128A11EB230A128A1106300A12B1
:10073E008A11EB230A128A11A42B0800BA00861123
:10074E003A08BB003B08FD006400831203138614B5
:10075E00061164008312031386156400F0308312B1
:10076E000313BB003B08FD050F30BB003B0888059B
:10077E007D08BB003B0888046400831203138611B6
:10078E006400831203133A08BB003B08FD006400AB
:10079E008312031386156400FD0EF030FD05F03054
:1007AE0083120313BB003B08FD050F30BB003B0853
:1007BE0088057D08BB003B08880464008312031380
:1007CE008611E92BEA2B080083120313B800861159
:1007DE003808BA003A08FD0064008312031386102D
:1007EE00061164008312031386156400F030831221
:1007FE000313BA003A08FD050808B9000F30BA0015
:10080E003A08B90539087D04880064008312031381
:10081E0086116400831203133808BA003A08FD00EB
:10082E0064008312031386156400FD0EF030FD057F
:10083E00F03083120313BA003A08FD050F30BA00E8
:10084E003A0888057D08BA003A08880464008312C5
:10085E0003138611322C332C08003E083D043C0451
:10086E003B0403193B2C3C2C802CBF010314BF0D01
:10087E004D2C0130C0000310BB0DBC0DBD0DBE0DC7
:10088E00C00B422C0130C0004008BF07BE1F502CC9
:10089E00512C402C3E083A02031D5F2C3D083902B4
:1008AE00031D5F2C3C083802031D5F2C3B083702EA
:1008BE00031C622C632C712C3B08B7023C08031CF2
:1008CE003C0FB8023D08031C3D0FB9023E08031C45
:1008DE003E0FBA0201300310BE0CBD0CBC0CBB0C9B
:1008EE00FF3E031D722C0130BF02031D7F2C802C96
:1008FE00512C812C08003A08390438043704031DA2
:10090E00892C8A2C912C0030B7000030B8000030B2
:10091E00B900D02C8E30BB00A12C01300310BA0CC4
:10092E00B90CB80CB70CFF3E031D952C0130BF005F
:10093E003F08BB070030BF000030C0000030C100D0
:10094E00FF30C2003708BF053808C0053908C10599
:10095E003A08C2054208410440043F04031DB82C66
:10096E00B92C942C3708BC003808BD003908BE00DD
:10097E003B08C4003C300A128A111D270A128A1144
:10098E00831203133C08B7003D08B8003E08B900B7
:10099E00D02C080038083704031DD62CD72CDE2C9B
:1009AE000030B7000030B8000030B900202D3708F5
:1009BE00BD003808BE000030BE1BFF30BF003D0832
:1009CE00BA003E08BB003F08BC00B81FEF2CF02C4D
:1009DE00F82CBA09BB09BC09BA0A0319BB0A0319D8
:1009EE00BC0A8E30C4003A300A128A111D270A1230
:1009FE008A1183120313B81F052D062D192D3A08DF
:100A0E00C0003B08C1003C08C2000A128A11E3274D
:100A1E000A128A11831203134008BA004108BB0060
:100A2E004208BC003A08B7003B08B8003C08B900C1
:100A3E00202D0800C5004508840083130008C70058
:100A4E00840A0008C800840A0008C9000F30031089
:100A5E00C90CC80CC70CFF3E031D2E2D4708C6003F
:100A6E00CA00440884004A088000C608031D402DB1
:100A7E00412D4D2D4508840000308000840A003041
:100A8E008000840A0030800000307A2D0310003080
:100A9E0003180130C6004508840000308004840A23
:100AAE0080308004840A00308004450884000008E9
:100ABE00C700840A0008C800840A0008C900C91FBC
:100ACE00692D6A2D6E2D0130C7004708C6074508EF
:100ADE008400FF308005840AFF308005840A0030D0
:100AEE00800546087A2D08000030C3000030C20091
:100AFE000030C1000030C0003E083D043C043B0401
:100B0E0003198A2D8B2DE02DBF010314BF0D9C2DD3
:100B1E000130C4000310BB0DBC0DBD0DBE0DC40BCA
:100B2E00912D0130C4004408BF07BE1F9F2DA02D7C
:100B3E008F2D0130C4000310C00DC10DC20DC30DA9
:100B4E00C40BA22D3E083A02031DB72D3D083902F3
:100B5E00031DB72D3C083802031DB72D3B08370285
:100B6E00031CBA2DBB2DD12D3B08B7023C08031C2C
:100B7E003C0FB8023D08031C3D0FB9023E08031C92
:100B8E003E0FBA020130C0040030C1040030C2046E
:100B9E000030C30401300310BE0CBD0CBC0CBB0CEA
:100BAE00FF3E031DD22D0130BF02031DDF2DE02DB0
:100BBE00A02D4308BA004208B9004108B800400809
:100BCE00B700E92D08003C30C40037300A128A11F4
:100BDE0021250A128A1183120313BB003708BD00A8
:100BEE003808BE003908BF00C0018E30BC02BC1FE1
:100BFE00012E022E242E3C08803A8F3E0318082E1A
:100C0E00092E122E0030BA000030B9000030B800A4
:100C1E000030B7005C2E01300310C00CBF0CBE0CB0
:100C2E00BD0CFF3E031D132E0130C1004108BC0751
:100C3E00031D222E232E122E442E20303C02031C86
:100C4E00292E2A2E332E0030BA000030B900003083
:100C5E00B8000030B7005C2E3F2E0130C1000310EB
:100C6E00BD0DBE0DBF0DC00DC10B362E0130BC0229
:100C7E00BC08031D432E442E342EBB08031D482EE4
:100C8E00532EBD09BE09BF09C009BD0A0319BE0A0C
:100C9E000319BF0A0319C00A4008BA003F08B90079
:100CAE003E08B8003D08B7005C2E08000030C000BA
:100CBE000030C1000030C2003E30C40037300A128E
:100CCE008A1121250A128A1183120313BD003F30A7
:100CDE00C4003A300A128A1121250A128A1183128F
:100CEE000313C3004308BD06BF08031D7F2E842EC9
:100CFE00BE08031D832E842E8B2E4008B70041089C
:100D0E00B8004208B900FF2E3F087B3EC3004308DF
:100D1E00BE070730BF00371C952E962EA42E3A081C
:100D2E00C0073B08031103183B0A031DC1073C080B
:100D3E00031103183C0A031DC20701300310B90C3E
:100D4E00B80CB70CFF3E031DA52E01300310BA0DD3
:100D5E00BB0DBC0DFF3E031DAD2E0130BF02031DAA
:100D6E00B92EBA2E922E0930BF00371CBF2EC02EC0
:100D7E00CE2E3A08C0073B08031103183B0A031D89
:100D8E00C1073C08031103183C0A031DC2070130BA
:100D9E000310B90CB80CB70CFF3E031DCF2E01305B
:100DAE000310C20CC10CC00CFF3E031DD72E013028
:100DBE00BF02031DE32EE42EBC2E3E08C4004030BD
:100DCE000A128A111D270A128A1183120313BD08F3
:100DDE00031DF22EF82E0030C0040030C104803006
:100DEE00C2044008B7004108B8004208B900FF2EFF
:100DFE000800FE00FE1F082F83137E1883170008BD
:100E0E0008000408FE0007308A007E0882070034BE
:100E1E002034203454344834453452344D344F3415
:100E2E004D3445345434453452340034C500C4086E
:100E3E00031D222F342F4508840083130008C6009B
:100E4E00840A0008C700840A0008C800480847043E
:100E5E004604031D332F342F402F450884000030E5
:100E6E0083138000840A00308000840A00308000E2
:100E7E00E22F532F0130C6004608C40745088400F0
:100E8E000130C600840A840A0310800C8403800C8F
:100E9E008403800CC60B492F4508840000300005E2
:100EAE00C600840A00300005C700840AFE30000523
:100EBE00C800480847044604031D662F672F412FBC
:100ECE00892F0130C6004608C4074508840001304A
:100EDE008007840A00300318013E031D8007840A30
:100EEE0000300318013E8007450884000130C6001B
:100EFE00840A840A0310800C8403800C8403800C03
:100F0E00C60B7F2F4508840000300005C600840AFA
:100F1E0000300005C700840AFF300005C8004808ED
:100F2E0047044604031D9C2F9D2F682FAE2F0130C2
:100F3E00C4024508840001300310800D840A800D20
:100F4E00840A800D84038403FF3E031DA32F4508EE
:100F5E0084000008C600840A0008C700840A00083E
:100F6E00C800C71FBB2FBC2F9E2F4418BF2FC02FEA
:100F7E00CA2F45088400FF308005840A7F30800523
:100F8E00840AFF3080050310C40C4408C600C70154
:100F9E00C80110300310C60DC70DC80DFF3E031D4E
:100FAE00D12F4508840046088004840A470880042F
:100FBE00840A4808800408004208410440040319CA
:0E0FCE00E92FEA2FEC2F8030C206ED2F08002D
:02400E003A3F37
:00000001FF
